:400000000080002011000000090900000909000008B5044B1A6803F53F5302331A6000F093FC00BFFA46004010B5054C237833B9044B13B10448AFF300800123237010BDC4
:400040005881FF1F00000000981C0000084B10B51BB108490848AFF300800848036803B910BD074B002BFBD0BDE81040184700BF000000005C81FF1F981C0000C880FF1F7A
:40008000000000000B78B22B07D14B681B7803704B685B784370002070474FF0FF3070470378A02B01D1012070470020704700BF10B50446406801F099F9204601F096F974
:4000C00010BD00BF064B1A68D3890649496801FB130080B2538898422CBF002001207047C481FF1FCC80FF1F064B1A68D3890649496801FB030080B25388984294BF002017
:4001000001207047C481FF1FCC80FF1F70B5012423E0204600F056F9204600F07BF90546204600F029F998B92846FFF7CBFF90B12846FFF7D9FF18B9094B1B685D800AE030
:40014000074B1E687088401B01F0C8F8706002E0034B1B685D800134E4B2032CD9D970BDC481FF1F10B582B004460378B22B12D1014601A8FFF786FF9DF8040000F0EAF8B5
:400180009DF80510064B9B6803FB01F189B29DF8040000F08BF82046FFF78AFF02B010BDCC80FF1F10B50446037823B1012B05D1FFF7ACFF02E0407800F0F0F8204600F073
:4001C00059F810BD10B500F0F5FE184C204600F015FF62B600F084F8154800F07BF900F04DF8204600F00AFF00F0A6F804460028FAD00378012B07D013B1022B0BD011E08D
:400200000C4800F0FBFEEFE70B4800F0F7FE6068FFF7A8FFE8E7094800F0F0FE6068FFF7C1FFE1E7064800F0E9FEDDE79C1C0000A1000000B41C0000D81C0000F81C0000B0
:40024000181D0000704700BF08B500F0F5FB022001F0C4F8002202700122427000F066F808BD00BF08B500F091FC08BD08B500F037FD08BD08B501F0B9F808BD08B562B68E
:40028000064800F00BFD064800F05EFC054800F0AFFD054800F0DAFD08BD00BF49020000650200006D0200004502000008B5022809D003280DD0012810D1084600F0D6FB96
:4002C00000F014FC08BD084600F07AFC00F0B8FC08BD084600F01EFD00F05CFD08BD00BF024B00229A601A605A607047C881FF1F38B50A4B9B68092B0FD80C4605460C2012
:4003000001F06CF80570446000238360034B1A68906018609A6801329A6038BDC881FF1F08B501460120FFF7E3FF08BD08B501460220FFF7DDFF08BD054B9B6833B1044A82
:40034000506881685160013B9360704700207047C881FF1F08B5022806D0032808D0012809D100F081FD08BD012000F0A5FD08BD012000F08DFD08BD08B5022806D0032851
:4003800007D0012808D100F07BFD08BD00F0A0FD08BD00F089FD08BD08BD00BF08B5022807D0032809D001280AD1002000F05CFD08BD002000F080FD08BD002000F068FD6B
:4003C00008BD00BF08B502280AD003280FD0012814D10C4A0C4B1A60002000F091FD08BD0A4A094B1A60012000F08AFD08BD084A054B1A60022000F083FD08BD0022024BB5
:400400001A6008BDB481FF1FC481FF1FA481FF1F9481FF1F38B5FFF7D5FF002407E0002000F07AFD10B100F089FD05440134002CF5DDA8B238BD00BF037803F00F038068DF
:40044000834214BF00200120704700BF037803F00F038268934206D010B44368541C84609954002001E00120704710BC704700BF70B5054600F00F060C2000F0AFFF0446C4
:4004800005700023836043601EB1304600F0A6FF6060204670BD00BFF8B5074600220A4B1A7080240CE034EA070301D1074E00E0074E054D284601F0A1F833882B5264102D
:4004C000002CF0DC0048F8BD7481FF1F381D00003C1D000008B5044B1860044800F008FE00F0CCFD08BD00BFD881FF1F9105000030B5C1B00446FFF7CFFF03461E4AFF2101
:40050000684601F049F8684600F078FD1B4B1868D0B91B4800F072FD2046FFF7A9FF174C2060184B1B6898470546174BD86024682046FFF781FFE0B1DDB92046FFF7F0FE2D
:4005400000220E4B1A6014E02146FFF77FFF0B4B1868FFF771FF60B10C4800F04FFD0A4BDB681BB9054B1868FFF7DAFE0022034B1A6041B030BD00BF401D0000D481FF1F79
:40058000681D0000D881FF1F7481FF1F7C1D000038B500F087FD044609E000F07DFD054600F016FD2846FFF7A3FF013CE4B2002CF3D138BDFEE700BFF0B40022174611E0D1
:4005C00050F82760F3B226F0FF0608E001EB420511F812406D78A5550132013BDBB2002BF4D101371D2FEBD9F0BC70470D4B1B78DBB203F007010C4A11701B09013213705C
:4006000001220A4B1A70022228331A70202203331A7006222D331A704422A3F2E2231A70704700BFCF0100496E580040005B004008B50A46002100F0ECFE08BD08B500F067
:40064000DDFE08BD38B545F6BF52394B1A801823384A13704EF65F2237490A8002310B7002310A8002310B7002310A80334A1370332102321180023213704FF49C7102324A
:4006800011800232137004222D492E48FFF7D6FF02222D4B1A7008224FF040231A70032103F500731970294B1B78DBB228490B70284B1A8041F25122023B1A800024192515
:4006C0000CE0254B1B7803F0010343EA440404F003044FF4F07000F037FD013D0DB1032CEFD115B90320FFF765FF1C4B4FF480721A8007221A70002219490A704820023125
:4007000008701A700222033B1A7004220A331A70144A137843F03F031370013A137843F001031370013A137843F08003137038BD8040004082400040844000408E40004075
:4007400080060048004100400043004008010049A146004022420040254200400440004006400040A2430040022814D810B44000C0B2094B53F820101A18147E0A782243AE
:400780000A700130C0B253F820201844017E13780B43137010BC7047941D0000022816D810B44000C0B20A4B53F820101A18147E0A7822EA04020A700130C0B253F82020C8
:4007C0001844017E137823EA0103137010BC7047941D000038B572B6384A137843F00403137000240BE0364863001A19510001440A46898C106AFFF71BFF0134E4B2092C44
:40080000F1D900240CE02E48A20011194B000344B3F86420196ED86DFFF710FF0134E4B2032CF0D927494FF09040FFF7C5FE264A137843F0020313701032137843F0020354
:400840001370224C237843F040032370A2F58632513A137843F01003137008221C491D48FFF7ECFE0A221C491C48FFF7E7FE08221B491C48FFF7E2FE08221B491B48FFF762
:40088000DDFE08221A491B48FFF7D8FE1A4A137843F008031370194D61232B70FFF7D2FE81232B700122164B1A70FFF79FFE0E2221461448FFF7C2FE38BD00BFE8460040FB
:4008C000941D00007800004803500140A043004054060048025100405C060048C0510040680600481251004070060048225100407806004832510040224300400048004020
:4009000004000840B043004008B500F03BFD03680C2B00D1FEE7FEE708B5094B1A681044084BC31A802B02DC054B186005E000F029FD0C2303604FF0FF32104608BD00BFD7
:40094000D880FF1FF081FF1F08B5104E104D16E029686B68AC68002204E051F8040B43F8040B0432A242F8D1E868002203E0002143F8041B04328242F9D11035013E002EBB
:40098000E6D100F005FDFFF71DFCFEE701000000741E000008B5104A104B1A60104A136843F40073136000230AE0032B03D80D4A52F8231000E00C490C4A42F82310013313
:4009C0002F2BF2D90A4B1A780A4B1A70074A0A4B1A60FFF7FFFE08BD0004FA050CED00E014ED00E000000000090900000080FF1FBC760040C080FF1F08ED00E008B5034B17
:400A00001B7A00FB03F000F09FFB08BDDC80FF1F084A137843F0020313701032137843F00203137002F65932137843F001031370704700BFA3430040084A137803F0FE0315
:400A40001370A2F66932137803F0FD0313701032137803F0FD031370704700BF0C4F0040014B1870704700BF0F4F0040014B1880704700BF104F0040014B1880704700BF30
:400A8000124F004008B5164A137803F0010313700232137803F0FC031370124B1A7802F0CF021A701A7842F030021A701A7802F0F0021A701A7842F00F021A700A4A137845
:400AC00043F0010313704EF65F20FFF7CFFF4EF65F20FFF7D1FF0820FFF7C2FF08BD00BF0C4F0040174F00400D4F004008B5054B1B7823B9FFF7C6FF0122024B1A70FFF7C5
:400B000087FF08BD8481FF1F024B1B68C3F88C00704700BF08ED00E04001C0B2014B1870704700BF13E400E04FF40022014B1A60704700BF00E100E04FF40022014B1A6084
:400B4000704700BF80E100E010B50446FFF7F4FF2046FFF7D9FF0720FFF7DEFFFFF7E4FF10BD00BF084A137843F0040313701032137843F00403137002F66532137843F0C2
:400B800001031370704700BFA3430040084A137803F0FE031370A2F67532137803F0FB0313701032137803F0FB031370704700BF184F0040014B1870704700BF1B4F00402E
:400BC000014B1880704700BF1C4F0040014B1880704700BF1E4F004008B5164A137803F0010313700232137803F0FC031370124B1A7802F0CF021A701A7842F030021A70D7
:400C00001A7802F0F0021A701A7842F00F021A700A4A137843F0010313704EF65F20FFF7CFFF4EF65F20FFF7D1FF0820FFF7C2FF08BD00BF184F0040234F0040194F004048
:400C400008B5054B1B7823B9FFF7C6FF0122024B1A70FFF787FF08BD8581FF1F024B1B68C3F88800704700BF08ED00E04001C0B2014B1870704700BF12E400E04FF48022C8
:400C8000014B1A60704700BF00E100E04FF48022014B1A60704700BF80E100E010B50446FFF7F4FF2046FFF7D9FF0720FFF7DEFFFFF7E4FF10BD00BF084A137843F008032F
:400CC00013701032137843F00803137002F67132137843F001031370704700BFA3430040084A137803F0FE031370A2F68132137803F0F70313701032137803F0F703137090
:400D0000704700BF244F0040014B1870704700BF274F0040014B1880704700BF284F0040014B1880704700BF2A4F004008B5164A137803F0010313700232137803F0FC0393
:400D40001370124B1A7802F0CF021A701A7842F030021A701A7802F0F0021A701A7842F00F021A700A4A137843F0010313704EF65F20FFF7CFFF4EF65F20FFF7D1FF082004
:400D8000FFF7C2FF08BD00BF244F00402F4F0040254F004008B5054B1B7823B9FFF7C6FF0122024B1A70FFF787FF08BD8681FF1F024B1B68C3F89000704700BF08ED00E0D6
:400DC0004001C0B2014B1870704700BF14E400E04FF48012014B1A60704700BF00E100E04FF48012014B1A60704700BF80E100E010B50446FFF7F4FF2046FFF7D9FF0720A7
:400E0000FFF7DEFFFFF7E4FF10BD00BF024B1B68C3F88400704700BF08ED00E04001C0B2014B1870704700BF11E400E04FF40032014B1A60704700BF00E100E04FF4003267
:400E4000014B1A60704700BF80E100E010B50446FFF7F4FF2046FFF7D9FF0720FFF7DEFFFFF7E4FF10BD00BF044A137803F0FE0300F0010018431070704700BF305100409A
:400E8000024B187800F00100704700BF31510040044A137803F0FB03800000F0040018431070704730510040024B1878C0F38000704700BF31510040044A137803F0FD0387
:400EC000400000F0020018431070704730510040024B1878C0F34000704700BF3151004010B5002404E02046FFF758FC0134E4B2022CF8D9FF22014B1A7010BDEC80FF1FD0
:400F000010B50446FFF7ECFF2046FFF72DFC014B1C7010BDEC80FF1F10B5074B1B7813F0010401D10028F8D024B10120FFF766FD014B1B78204610BD09590040034B1888A8
:400F400080B2034B1B88C01A00B27047A25B0040E081FF1F7222084B1A70202203331A700622A3F5B0731A70472210331A70002203F5A7731A7070478465004010B500F0E6
:400F8000EBF804460A4A137843F0200313700332137843F010031370023A137843F01003137000F0B3F8204600F0DAF810BD00BF9465004008B5054B1B7823B9FFF7CAFF70
:400FC0000122024B1A70FFF7D9FF08BD8781FF1F024B1B780BB1024B187070478781FF1F44650040034B1B7813F0040FFAD1024B18707047656500404465004038B5074B87
:401000001B782BB938BDFFF7EDFF0134A4B201E005460024285D0028F5D138BD8781FF1F7222074B1A702022013B1A700622A2331A70472210331A700022B03B1A70704776
:401040008564004010B500F087F804460A4A137843F020031370013A137843F0100313700232137843F01003137000F05DF8204600F076F810BD00BF9564004008B5054B1F
:401080001B7823B9FFF7CCFF0122024B1A70FFF7D9FF08BD8981FF1F014B1878704700BF45640040044B1B7813F0200F01D0012070470020704700BF64640040014B1B68E6
:4010C0009864704708ED00E04001C0B2014B1870704700BF02E400E00422014B1A60704700E100E00422014B1A60704780E100E010B50446FFF7F6FF2046FFF7DFFF072002
:40110000FFF7E2FFFFF7E8FF10BD00BF054A137843F0100313701032137843F010031370704700BFA2430040054A137843F0200313701032137843F020031370704700BFCC
:40114000A2430040000000000230800803D000BF01380046FCD17047EFF3108072B6704780F31088704700BF80F0004002E000BF81F0004142001FBF5FEA410392EA030FEB
:401180007FEA226C7FEA236C6AD04FEA1262D2EB1363C1BFD218414048404140B8BF5B42192B88BF704710F0004F40F4000020F07F4018BF404211F0004F41F4000121F09A
:4011C0007F4118BF494292EA030F3FD0A2F1010241FA03FC10EB0C00C3F1200301FA03F100F0004302D5494260EB4000B0F5000F13D3B0F1807F06D340084FEA310102F1BA
:401200000102FE2A51D2B1F1004F40EBC25008BF20F0010040EA03007047490040EB000010F4000FA2F10102EDD1B0FA80FCACF1080CB2EB0C0200FA0CF0AABF00EBC250BD
:4012400052421843BCBFD0401843704792F0000F81F4000106BF80F400000132013BB5E74FEA41037FEA226C18BF7FEA236C21D092EA030F04D092F0000F08BF08467047A4
:4012800090EA010F1CBF0020704712F07F4F04D1400028BF40F00040704712F100723CBF00F50000704700F0004343F0FE4040F4000070477FEA226216BF08467FEA236355
:4012C0000146420206BF5FEA412390EA010F40F4800070474FF0000304E000BF10F0004348BF40425FEA000C08BF704743F0964301464FF000001CE050EA010208BF70472F
:401300004FF000030AE000BF50EA010208BF704711F0004302D5404261EB41015FEA010C02BF84460146002043F0B64308BFA3F18053A3F50003BCFA8CF2083AA3EBC25386
:4013400010DB01FA02FC634400FA02FCC2F12002BCF1004F20FA02F243EB020008BF20F00100704702F1200201FA02FCC2F1200250EA4C0021FA02F243EB020008BF20EAD3
:40138000DC707047014B1868704700BF5081FF1F0E4B70B51E460E4C0025E41AA410A54204D056F8253098470135F8E700F050FD084B094C1E46E41AA4100025A54204D0B9
:4013C00056F8253098470135F8E770BD5C1E00005C1E00005C1E0000641E0000024B0146186800F06BB800BF5081FF1F024B0146186800F017B800BF5081FF1F10B5431EBD
:401400000A44914204D011F8014B03F8014FF8E710BD03460244934202D003F8011BFAE77047000038B50546002944D051F8043C0C1F002BB8BFE41800F0E8F81E4A13680C
:40144000114613B96360146030E0A3420DD92268A018834201BF18685B681218226063600C6023E0A24203D813465A68002AF9D118681918A1420BD121680144581882420F
:40148000196013D110685268014419605A600DE002D90C232B6009E021686018824201BF106852680918216062605C602846BDE8384000F0ACB838BD9081FF1F70B5CD1CD2
:4014C00025F0030508350C2D38BF0C25002D064601DBA94202D90C23336046E000F096F8234B1C681A462146A1B10B685B1B0ED40B2B03D90B60CC18CD501EE08C420BBFC6
:4015000063684B681360636018BF0C4615E00C464968E9E7174C23681BB9304600F02CF820602946304600F027F8431C18D0C41C24F00304A0420DD12560304600F067F8FA
:4015400004F10B00231D20F00700C31A0ED05A42E25070BD211A304600F00EF80130EBD10C233360304600F052F8002070BD00BF9081FF1F8C81FF1F38B5064C0023054645
:4015800008462360FFF7C8F9431C02D1236803B12B6038BDE881FF1F0CB430B5164B0C1E9DB01D6804DA8B232B604FF0FF301EE04FF40273ADF814300CBF234604F1FF33AA
:4015C000049307934FF6FF7302900690ADF81630209A21AB02A92846019300F073F8431CBCBF8B232B6014B1029B00221A701DB0BDE8304002B070475081FF1F034613F8B3
:40160000012B002AFBD1181A01387047704770472DE9F0478E6882469E420C46914698463ED88A8912F4906F3AD02568096902236F1A656905EB450595FBF3F57B1C434483
:401640009D4238BF1D4653050FD52946FFF736FF064698B13A462169FFF7D0FEA38923F4906343F08003A38113E02A4600F0E3FA064670B921695046FFF7D4FE0C23CAF86A
:401680000030A3894FF0FF3043F04003A381BDE8F08726613E44266046466561ED1BA560464528BF464649463246206800F0A8FAA36800209B1BA36023681E442660BDE8A1
:4016C000F08700002DE9F04F9DB003938B8980461C060D4616460DD50B695BB94021FFF7EDFE2860286118B90C23C8F80030CDE040236B610023099320238DF82930DFF850
:401700009CB130238DF82A3037463C4614F8013B1BB9B7EB060910D003E0252BF9D02746F3E74B46324629464046FFF771FF013000F0A780099B4B4409933B78002B00F0F2
:40174000A08000234FF0FF3204930793059206938DF853301A930126052221784E4800F041FA671C049B38B14B4A3C46801A06FA00F018430490EFE7D90644BF20228DF8DE
:4017800053201A0744BF2B228DF8532022782A2A03D0079A00210A200BE0039A111D12680391002A10DA524243F00200079204900BE027463B780134303B092B03D800FB1D
:4017C00002320121F5E701B107923B782E2B1ED17B782A2B0AD1039B02371A1D1B680392002BB8BF4FF0FF33059310E0002319460593781C0A2407463A780130303A092AE4
:4018000003D804FB01210123F5E703B1059103223978224800F0E6F940B14023CBEB000003FA00F0049B013718430490397806221B487E1C8DF8281000F0D4F988B1194BA9
:4018400033B9039B073323F007030833039314E003AB00932A46144B04A94046AFF3008007E003AB00932A460F4B04A9404600F093F8B0F1FF3F824603D0099B534409936C
:4018800042E7AB895B0601D4099801E04FF0FF301DB0BDE8F08F00BF1A1E0000201E0000241E000000000000111600002DE9F04791461F460A698B6806469342B8BF134636
:4018C000C9F8003091F843200C46DDF8208012B10133C9F800302368990642BFD9F800300233C9F80030256815F0060510D104F1190A07E00123524639463046C0470130A4
:401900001AD00135E368D9F800209B1A9D42F1DB94F843302268003318BF012392060FD5E118302081F843005A1C94F845102244023382F8431003E04FF0FF30BDE8F08787
:4019400004F1430239463046C0470130F4D02268D9F80050E36802F00602042A08BF5D1B2269A3680CBF25EAE57500259342C4BF9B1AED184FF000091A344D4509D00123B9
:40198000224639463046C0470130D5D009F10109F3E70020BDE8F0872DE9F04317460A7E85B06E2A984606460C460C9B01F1430E00F0AE8011D8632A22D009D8002A00F0F1
:4019C000BB80582A40F0CA8081F84520834955E0642A1ED0692A1CD0C0E0732A00F0B08009D86F2A2ED0702A40F0B8800A6842F020020A603EE0752A24D0782A3AD0ADE0E5
:401A00001A6801F14205111D1960136884F84230A8E021681A6811F0800F02D0111D196008E011F0400F02F10401196002D0B2F9003000E01368002B3CDA2D225B4284F8E5
:401A4000432037E021681A6811F0800F02D0111D196007E011F0400F02F10401196001D0138800E01368227E5C496F2A14BF0A2208221BE078225A4984F84520226818683F
:401A800012F0800F00F104051D6003D1550601D5038800E00368D00744BF42F0200222601BB9226822F0200222601022002084F8430001E049490A226568002DA56008DBED
:401AC000206820F0040020602BB9002D7DD175460CE0002B79D07546B3FBF2F002FB1033CB5C05F8013D03460028F5D1082A0BD12368DA0708D5236962689A42DEBF3023B3
:401B000005F8013C05F1FF35C5EB0E0323612EE008681A6810F0800F496903D0101D1860136808E010F0400F02F104001860136801D0198000E0196000232361754616E08C
:401B40001A68111D1960156800216268284600F049F808B1401B6060636804E004F1420584F8422001232361002384F84330CDF800803B4603AA21463046FFF797FE0130D2
:401B800002D14FF0FF3026E023692A4639463046C0470130F5D023689B0710D5002504F1190907E001234A4639463046C0470130E7D00135E368039A9B1A9D42F2DBE0685C
:401BC000039B9842B8BF184605E00B7804F1420584F842308AE705B0BDE8F0832B1E00003C1E000010B5C9B202449042034605D01C7801308C42F8D1184610BD002010BD3B
:401C0000884210B501EB020301D8421E0BE09842FBD28118D21AD34204D013F8014D01F8014DF8E710BD994204D011F8014B02F8014FF8E710BDF8B5074615460E4621B922
:401C40001146BDE8F840FFF739BC1AB9FFF7EAFB2846F8BD00F015F885420ED929463846FFF72CFC044650B131462A46FFF7C6FB31463846FFF7D6FB01E03046F8BD2046A7
:401C8000F8BD51F8040C0028BEBF091851F8043CC0180438704700000000000050726F6772616D207374617274696E67203A290D0A000000466F756E64206A6F62207769A7
:401CC000746820747970653A20554E444546494E45440D0A00000000466F756E64206A6F62207769746820747970653A205041434B45540D0A000000466F756E64206A6FF0
:401D000062207769746820747970653A2054494D45520D0A00000000466F756E64206A6F62207769746820747970653A2044454641554C540D0A00003100000030000000A5
:401D400043616C6C696E672068616E646C6542797465526563697665642E2062797465203D2025730D0A00004E554C4C207061636B657420666F756E640D0A00646D63201F
:401D80007061636B657420636F6D706C6574650D0A0000002D510040005B00402D510040244300402D510040285B00400102020004040000004F004030004051004030000F
:401DC000F0510040100000000140800400050140000B80140140000200170140000500400140000A004C0140000200500140200060520040CC040048060080040140D40490
:401E0000004880000014014054050048800080160140D405004880004300232D302B2000686C4C006566674546470030313233343536373839414243444546003031323352
:401E400034353637383961626364656600000000F8B500BFF8BC08BC9E4670474D00000095090000F8B500BFF8BC08BC9E46704729000000881E0000C880FF1F9000000018
:401E8000980000000000000000000000460000000500000060090000F081FF1F0000E02EC05D00001800000000366E01FF0000000000000000000000000000000000000060
:401EC00000000000000000000000000000000000181E00000000000000000000000000000000000000000000000000000000000000000000000000000000000000000000AC
:401F000000000000000000000000000000000000F080FF1F000000000000000000000000000000000000000000000000000000000000000000000000000000000000000013
:401F40000000000000000000000000000000000000000000000000000000000000000000000000000000000000000000000000000000000000000000000000000000000061
:401F80000000000000000000000000000000000000000000000000000000000000000000000000000000000000000000000000000000000000000000000000000000000021
:401FC00000000000000000000000000000000000000000000000000000000000000000000000000000000000000000000000000000000000000000000000000000000000E1
:4020000000000000000000000000000000000000000000000000000000000000000000000000000000000000000000000000000000000000000000000000000000000000A0
:020000040003F7
:0200000480007A
:40000000074F004003640040036500400103014014040140390501406B0601404A0701400408014005090140010D01400A1401404415014034160140541701400219014003
:40004000021B01400440014004410140054201400D4301400145014001460140014701400448014004490140034C0140084D014004500140015101400A1B0D20161B193031
:40008000222725102E2784388572860F8472850F8738E6020001030106040B011E022A042E0232013404350136023E543F1054185604580459045B045D505F010002032091
:4000C0000404058107080A030C400D020E281120120114041690180119181C041D211E5522202512260D27012C042E4635A0360539023B203C803D0A3EA0444045294E0960
:40010000560157205B015E106001611062026D406F1475A0763077088602C0FCC2F1C473CAF0CCF0CEF5D0E0D230D621D80D00010120020E034504E708E709530B040D03C3
:400140000F44110A135414221651184419531A311B0C1F082C8030073218330F346035403680373039803B083E043F104024410346CC47EB483C49FF4AFF4BFF4EF04F446E
:40018000500C5401580459045A045B045C555D555F0166C06A406B02850C86808771882C89DC8A838B228D098E0C8FD0924094B19606972098B199109A0E9B409F03A514ED
:4001C000A608A910AA93ABACB040B20FB480B5E0B630B71FB880BA08BB20BE50C001C504C9FFCA07CBFFCC40CD20CEF0CF05D008D804D904DA04DC44DD04DF01E040E1A87A
:40020000E240E3200050021005010714082909200A200E241028154018341A011B021C801D091E041F4021202240230424082680272028082A042C402F40302832403340B3
:400240003680372138503B043D223E203F81420145014620472048214A01500854015608575058045A045C805D085E025F10633091409502972099089B149C44A230A4410D
:40028000A50CAE12C077C26EC486CA06CCBECEBED0E8D6F0E201E601B82ABE15D804DF0119201A901B0882108308E60280029401B202B401BE14D401D804DB04DD40DF0193
:4002C000012003A006100760081109800A180C040E2010A0135019251A111E081F082002218122242301281129202B80308031043322382839803B414020411048084A106D
:40030000521459015D015E485F206810695070B47310880789018A208F0891A092409552960198209B409C039D209E14A008A3A2A411B308C01EC22FC40FCA0FCC0FCE0F96
:40034000D006D204D6F1EA2003030410081409010B0E0C5C0E0210801203150117161B201E201F1C20092210246C261128702A0C2B082D1C2F03301F328033203460351ABE
:40038000370F38203BA03E144002464049FF4A074BFF4C404D204EF04F055008580459045A045C555D055F01604061A8624063200020014003A005800628070108810A0139
:4003C0000E800F01102011101444172819401A101BA11D201E801F082041211022102514270928012A102B202D802E203008314032103444369038603B043D203F01408102
:4004000042104520482149204F015310562058026221630281408210902092409304944095029620972198209A089B609C019E159F01A008A2B0A302A514A804AA40B48418
:40044000B601C0EFC299C476CA3ECC7ECEAED02BD20CD601D80DEE43AA40AD20E010E620301033013710CC7084109C109F11E640028087019F11C010E2406320672073808A
:40048000774083C09F10AE80D8C0DC80DE20E280E680EC10871097209720AB10AF10B710EEC07404A004B004DE201F109720C60110207A0188208E01C408DC01E008E604E3
:4004C00000300A3010301A30003F000008800000440000001F00606373000C0404180000086000005C1C23E201FF00007F08000000106300032400000CE700180240000029
:40050000001C00E12C1F10000F804C600020220A00000400240605000300E0C028FFFFFF62A0F0410C00000000000211040404045555000100000000000040020010301042
:40054000001010120000000000000000000000000000000002FF00000318000073080C0000000063010000041F1C60E15C6023007F10000008400000041C00E20CE70018FF
:400580000024630010802C1F0F604C00000228880000010026030000000EC00B19FFFFFF0000F0440C000000000002130404040444440001000000000000C0000000400263
:4005C000000000000000000000000000000000000000000012000900083114403FA000412000008005000A0000020050003100C00000400400000000000040083F30004006
:4006000000000004400320001CF0030C000200200000014063050400010CE00009FFFFFF62A0F0410C000000180004000404040444440001000000000000400200103010F0
:4006400000101012000000000000000000000000000000000000000000000400880044888800880000000000000B0B000000000000000000000007000000070000000000BC
:400680000C00180100000000000000000000000000000000000000000000000000000000000000000000000000000000000000000000000000000000000000000000000015
:4006C00000000000000000000000000000000000000000000000000000000000000000000000000000000000000000000000000000000000000000000000000000000000FA
:4007000000000000000000000000000000000000000000000000000000000000000000000000000000000000000000000000000000000000000000000000000000000000B9
:400740000000000000000000000000000000000000000000000000000000000000000000000000000000000000000000000000000000000000000000000000000000000079
:400780000000000000000000000000000000000000000000000000000000000000000000000000000000000000000000000000000000000000000000000000000000000039
:0200000490006A
:0400000000004005B7
:0200000490105A
:04000000BC90ACAF55
:0200000490303A
:02000000C87ABC
:0200000490402A
:4000000000000000000000000000000000000000000000000000000000000000000000000000000000000000000000000000000000000000000000000000000000000000C0
:400040000000000000000000000000000000000000000000000000000000000000000000000000000000000000000000000000000000000000000000000000000000000080
:400080000000000000000000000000000000000000000000000000000000000000000000000000000000000000000000000000000000000000000000000000000000000040
:4000C0000000000000000000000000000000000000000000000000000000000000000000000000000000000000000000000000000000000000000000000000000000000000
:0200000490501A
:0C00000000012E16106900012E22D8E32A
:00000001FF