:400000000080002011000000191300001913000080B500AF024A034B1B68136001F0B0F9BC760040FA46004010B5054C237833B9044B13B10448AFF300800123237010BD15
:400040006081FF1F00000000C42E0000084B10B51BB108490848AFF300800848036803B910BD074B002BFBD0BDE81040184700BF000000006481FF1FC42E0000C880FF1FEE
:400080000000000080B582B000AF78607B685B68184602F03FFE786802F03CFE00BF0837BD4680BD80B485B000AF786039603B681B78B22B02D04FF0FF3313E00023FB7372
:4000C0003B685A68FB7B13441A787B681A70FB7B0133FB733B685A68FB7B13441A787B685A70002318461437BD4680BC704700BF80B483B000AF0346FB71FB79022B06D083
:40010000032B07D0012B08D1064B1B6805E0064B1B6802E0054B1B68FFE718460C37BD4680BC7047D080FF1FD480FF1FD880FF1FB0B586B000AF364B1B685A88344B1B686E
:40014000B3F904309BB2D31A9AB2314B1B681B89D31AFB822E4B1B685A892D4B1B681B89D31ABB822A4B1B681B897B82FB8A40F6C412934201D90023FB82FB8A184602F016
:4001800065FA04460D46BB8A184602F05FFA02460B462046294602F0F9FB03460C46C7E902344FF000021B4BD7E9020102F0C4FA03460C46C7E900344FF00002164BD7E985
:4001C000020102F049FD0346002B0AD14FF000024FF00003D7E9020102F020FD0346002B01D0002310E00D4B1B78184602F03EFAD7E9022302F0A0FA03460C461846214684
:4002000002F034FD03469BB218461837BD46B0BDE881FF1F0080514000005E40CC80FF1F80B582B000AF01237B6017E00A2001F047F97B68DBB2184600F014FB0B4B1B683B
:400240001B783B70FFF774FF03461BB27B803B46184600F02DFD7B6801337B607B68032BE4DD00BF0837BD4680BD00BFE881FF1F80B483B000AF0346FB80FA88064B1B6855
:400280001B890A3B9A42CCBF01230023DBB218460C37BD4680BC7047E881FF1F80B483B000AF78600C4B1B7B002B02D07B6801221A700A4B1B7B002B02D07B6802221A701B
:4002C000074B1B7B002B02D07B6803221A7000BF0C37BD4680BC7047D881FF1FC881FF1FB881FF1F80B586B000AF01237B6186E07B69DBB2184600F0B5FA00F0DFFA03465A
:400300007B827B8A1846FFF7B3FF0346002B1ED13F4B1B7B002B15D13E4B1B7B002B11D13D4B1B7B002B0DD13C4B1B6801221A7307F110031846FFF7B1FF07F1100318469C
:4003400000F086FC354B1B6801221A7336E0334B1B681B7B002B31D0304B1B6800221A732B4B1B7B002B1FD12A4B1B7B002B1BD1294B1B7B002B17D107F11003184600F013
:400380007FFC264B1B687A8A5A80244B1B681B783B73FFF7CDFE03461BB2FB8107F10C03184600F085FC09E007F108031846FFF775FF07F10803184600F04AFC7B69DBB2D8
:4003C000184600F099F90346002B15D0134B1B681B7B002B10D1114B1B687A8A5A800F4B1B681B783B71FFF7A3FE03461BB2FB803B1D184600F05CFC7B6901337B617B696A
:40040000032B7FF775AF00BF1837BD4680BD00BFD881FF1FC881FF1FB881FF1FE881FF1F90B585B000AF78607B681B78B22B1BD107F10C0379681846FFF734FE3B7B184669
:4004400000F02EF97B7B9CB23B7B1846FFF750FE03469BB203FB04F3FB813B7BFA891146184600F0E5F800BF7868FFF70BFE00BF1437BD4690BD00BF90B583B000AF786051
:400480007B681B78002B04D0012B13D1FFF72AFF10E07B685B78184600F04EF97B685B78184600F0DFF9074B1C6800F007FA0346638000BF786800F08FF800BF0C37BD4673
:4004C00090BD00BFE881FF1F80B582B000AF62B600F042FB00F08CF800F05AF9FFF7A0FE3B46184600F022FC0346002B10D13B78012B02D0022B05D00BE07B681846FFF7AC
:400500008FFF06E07B681846FFF7B6FF00BF00E000BFE5E780B584B000AF0346FB71022002F0F0FB0346FB60FB6800221A70FB68FA795A70F86800F03DFC00BF1037BD4680
:4005400080BD00BF80B582B000AF022002F0DAFB03467B607B6801221A70786800F02AFC00BF0837BD4680BD80B500AF054B1B68002B05D00120FFF7CDFF024B00221A6015
:4005800000BF80BD7C81FF1F80B500AF054B1B68002B05D00220FFF7BDFF024B00221A6000BF80BD8081FF1F80B500AF054B1B68002B05D00320FFF7ADFF024B00221A6030
:4005C00000BF80BD8481FF1F80B500AFFFF7BAFF01F08EF800BF80BD80B582B000AF7860786802F097FB00BF0837BD4680BD00BF80B500AF01F0E0F801F0C6F901F0ACFA93
:4006000001F054F8064801F023FA064801F038F9054801F005FB054801F050FB00BF80BD6905000089050000A9050000C905000080B582B000AF03460A46FB711346BB80C7
:40064000FB79022B0ED0032B16D0012B00D01EE0BB88184601F0F8F801F0D0F80D4B01221A6013E0BB88184601F0D6F901F0AEF9094B01221A6009E0BB88184601F0B4FAB7
:4006800001F08CFA054B01221A6000BF00BF0837BD4680BD7C81FF1F8081FF1F8481FF1F80B582B000AF0346FB71FB79022B0BD0032B10D0012B00D014E0012001F01EFE09
:4006C0000A4B01221A600DE0012001F033FE084B01221A6006E0012001F0F2FD054B01221A6000BF00BF0837BD4680BD8881FF1F8C81FF1F9081FF1F80B483B000AF034637
:40070000FB71FB79022B06D0032B07D0012B08D1064B1B6805E0064B1B6802E0054B1B68FFE718460C37BD4680BC70478881FF1F8C81FF1F9081FF1F80B582B000AF03462D
:40074000FB71FB79022B0BD0032B10D0012B00D014E0002001F0D2FD0A4B00221A600DE0002001F0E7FD084B00221A6006E0002001F0A6FD054B00221A6000BF00BF0837AE
:40078000BD4680BD8881FF1F8C81FF1F9081FF1F80B500AF01F0E0FA01F00CFB01F0E4FB2D4B40F23972DA802C4B40F24942DA802B4B40F2EC62DA80274B4FF439721A8179
:4007C000264B4FF4A0721A81254B4FF4E6721A81214B4FF4FF625A81204B40F21B425A811F4B40F2AC625A811B4B01221A701B4B02221A701A4B03221A70174B00221A7361
:40080000164B00221A73164B00221A73124B00229A80124B00229A80114B00229A80012000F020F800F04AF803461A460A4B5A80022000F017F800F041F803461A46074B56
:400840005A80032000F00EF800F038F803461A46034B5A8000BF80BDD881FF1FC881FF1FB881FF1F80B582B000AF0346FB71FB79022B0AD0032B0FD0012B14D10B4B0C4A53
:400880001A60002001F082FA0DE0084B094A1A60012001F07BFA06E0044B074A1A60022001F074FA00BF0837BD4680BDE881FF1FD881FF1FC881FF1FB881FF1F80B582B0BB
:4008C00000AF00237B600023FB7012E0002001F05BFB0346002B06D001F076FB03461A467B6813447B6097F90330DBB20133DBB2FB7097F90330074A12789342E6DB054BFA
:400900001B781A467B68B3FBF2F39BB218460837BD4680BDDC80FF1F80B584B000AF0346FB71FB7903F00F03FB730C2002F0EAF90346BB60BB68FA791A70BB6800229A6032
:40094000BB6800225A60FB7B002B07D0FB7B184602F0D8F903461A46BB685A60BB6818461037BD4680BD00BF80B582B000AF78607B685B68184602F0CDF9786802F0CAF9DD
:4009800000BF0837BD4680BD80B485B000AF78607B681B7803F00F03FB73FA7B7B689B689A420CBF01230023DBB218461437BD4680BC704780B485B000AF78600B46FB70FF
:4009C0007B681B7803F00F03FB73FA7B7B689B689A4201D101230AE07B685A687B689B68581C796888601344FA781A70002318461437BD4680BC704780B584B000AF78602A
:400A000039607B68002B02D14FF0FF3320E07B681B68002B05D18120FFF77EFF02467B681A607B681B681B78812B02D06FF001030EE00023FB737B681B685A68FB7B13445D
:400A40003A6812781A707B681B6801229A60002318461037BD4680BD80B584B000AF786039607B68002B02D14FF0FF332DE07B681B68002B05D19220FFF74EFF02467B68C6
:400A80001A607B681B681B78922B02D06FF001031BE00023FB737B681B685A68FB7B13443A6812781A70FB7B0133FB737B681B685A68FB7B13443A68B2F90220D2B21A7010
:400AC0007B681B6803229A60002318461037BD4680BD00BF80B582B000AF786039607B68002B02D14FF0FF3312E07B681B68002B05D1D020FFF710FF02467B681A607B68FB
:400B00001B681B78D02B02D06FF0010300E0002318460837BD4680BD80B584B000AF78607B681B78184601F04DFB0023FB600AE07B685A68FB6813441B78184601F042FBAC
:400B4000FB680133FB607B689A68FB689A42EFD800BF1037BD4680BD80B500AF034801F047FB01F0A9FA00BF80BD00BF250C000080B582B000AF0346FB71FB79002B44D0F2
:400B8000254B1B68002B24D1FB791846FFF7C4FE0246214B1A60214B1B681F4A12681046984702461E4B1A601B4B1B681846FFF7EBFE0346002B2AD0194B1B68002B26D19B
:400BC000154B1B68184600F0E9F8134B00221A601EE0114B1B68FA7911461846FFF7EAFE0D4B1B681846FFF7CFFE0346002B0FD00B4B1B68002B04D1074B1B68184600F0BB
:400C0000CDF8054B00221A6002E000BF00E000BF0837BD4680BD00BFEC81FF1FF081FF1F9481FF1F80B582B000AF07E001F0A6FA0346FB71FB791846FFF79AFF01F0ACFAFD
:400C40000346002BF2D100BF0837BD4680BD00BF80B584B000AF78600023FB6007F10C0379681846FFF7C8FEFB681846FFF754FFFB681846FFF778FE00BF1037BD4680BD53
:400C800080B584B000AF78600023FB6007F10C0379681846FFF71EFFFB681846FFF73CFFFB681846FFF760FE00BF1037BD4680BD80B584B000AF78600023FB6007F10C03AB
:400CC00079681846FFF7C8FEFB681846FFF724FFFB681846FFF748FE00BF1037BD4680BD80B483B000AF03463960FB710D4B1B680A2B12D00B4B1B680B49FA7901F833209A
:400D0000084B1B68084ADB0013443A685A60054B1B680133034A136000E000BF0C37BD4680BC7047A481FF1FF481FF1F80B485B000AF7860174B1B68002B01D1012323E08F
:400D40007B68154A92E8030083E803000123FB600FE0FB68013B10480F49FA68DB000344D2000A4492E8030083E80300FB680133FB60084B1B68FA689A42EADB054B1B685C
:400D8000013B044A1360002318461437BD4680BC704700BFA481FF1FF481FF1F80B582B000AF786079680120FFF79AFF00BF0837BD4680BD80B582B000AF78607968022031
:400DC000FFF78EFF00BF0837BD4680BD80B582B000AF786039603A680021786801F0ADFF00BF0837BD4680BD80B584B000AFF860B9607A607A68B968F86801F093FF00BF25
:400E00001037BD4680BD00BF80B483B000AF0346FB71FEE780B487B000AF7860396000233B6100237B6127E07B699B007A6813441B68BB60BB68FB73BB6823F0FF03BB6032
:400E400014E03B695B003A6813441B781A46BB68134419463B695B003A6813445B780B703B6901333B61FB7B013BFB73FB7B002BE7D17B6901337B617B691B2BD4D900BFFD
:400E80001C37BD4680BC704780B582B000AF4B4B45F6BF521A804A4B18221A70494B4EF65F221A80484B18221A70484B4EF65F221A80474B18221A70464B4EF65F221A807C
:400EC000454B18221A70454B4FF49C721A80444B18221A70042243494348FFF785FF434B02221A704FF0402308221A70404B03221A70404B404A1278D2B21A703F4B0822EC
:400F00001A803F4B41F251221A800023FB7019237B6014E0FB785B00DAB23A4B1B78DBB203F00103DBB21343DBB203F00303FB704FF4F07001F01CFA7B68013B7B607B6863
:400F4000002B02D0FB78032BE4D17B68002B02D10320FFF759FF2C4B4FF480721A802A4B07221A70294B00221A70294B48221A70254B00221A70274B02221A70264B042203
:400F80001A70264A254B1B78DBB243F01F03DBB21370234A224B1B78DBB243F00103DBB21370204A1F4B1B78DBB263F07F03DBB2137000BF0837BD4680BD00BF804000402B
:400FC000824000408440004086400040884000408A4000408C4000408E400040904000409240004080060048004100400043004000420040A1460040080100492242004026
:401000002042004025420040044000400640004008400040014000400B400040A2430040A1430040A043004080B483B000AF114B1B78FB71104AFB7903F00703DBB2137011
:401040000E4AFB791B09DBB213700D4B01221A700C4B02221A700C4B20221A700B4B06221A700B4B44221A7000BF0C37BD4680BC704700BFCF0100496E5800406F58004018
:40108000005B0040285B00402B5B0040585B00407658004080B483B000AF0346FB71FB79022B24D8FA79FB791344FB71FB79124A52F82330FA79104951F822201178FA7939
:4010C0000E48825C0A43D2B21A70FB790133FB71FB79094A52F82330FA79074951F822201178FA790548825C0A43D2B21A7000BF0C37BD4680BC7047C82E0000E02E00001D
:4011000080B483B000AF0346FB71FB79022B28D8FA79FB791344FB71FB79144A52F82330FA79124951F822201178FA791048825CD243D2B20A40D2B21A70FB790133FB719A
:40114000FB790A4A52F82330FA79084951F822201178FA790648825CD243D2B20A40D2B21A7000BF0C37BD4680BC7047C82E0000E02E000080B586B000AF72B6504A504B2F
:401180001B78DBB243F00403DBB213700023FB7513E0FA7D13465B0013445B00494A13443B613B691A683B699B889BB219461046FFF70CFEFB7D0133FB75FB7D072BE8D966
:4011C0000023FB751CE0FA7D13469B0013445B003D4A1344FB60FB681B68BB60FB685B687B60FB681A7A5B7A1B0213437B807B881A467968B868FFF7F7FDFB7D0133FB7564
:40120000FB7D002BDFD031494FF09040FFF702FE2F4A2F4B1B78DBB243F00203DBB213702C4A2C4B1B78DBB243F00203DBB21370294A294B1B78DBB243F04003DBB21370A0
:40124000264A264B1B78DBB243F01003DBB21370082223492348FFF7C7FD0A2222492348FFF7C2FD082222492248FFF7BDFD082221492248FFF7B8FD082221492148FFF75A
:40128000B3FD214A204B1B78DBB243F00803DBB213701E4B61221A70FFF7F6FD1B4B81221A701B4B01221A70FFF7BEFE0E220A491848FFF799FD00BF1837BD4680BD00BF07
:4012C000E8460040E82E0000182F0000700000480350014013500140A0430040C243004054060048025100405C060048C051004068060048125100407006004822510040D1
:401300007806004832510040224300400048004004000840B043004080B500AF01F0C6FC03461B680C2B00D1FEE7FEE780B584B000AF7860104B1A687B6813441A460F4B82
:40134000D31AB3F5006F09DC0B4B1B68FB600A4B1A687B681344084A136007E001F0A6FC02460C2313604FF0FF33FB60FB6818461037BD4680BD00BFE080FF1F5882FF1FCD
:4013800080B586B000AF224B7B61224B3B61204B7B6135E03B691B68FB603B695B68BB603B699B683B6000237B600CE0FB681A68BB681A60BB680433BB60FB680433FB6049
:4013C0007B6804337B607A683B689A42EED13B69DB683B6000237B6008E0BB6800221A60BB680433BB607B6804337B607A683B689A42F2D13B6910333B617B69013B7B61A4
:401400007B69002BC6D101F057FCFFF75DF8FEE701000000482F000080B582B000AF184B184A1A60184A184B1B6843F40073136000237B600FE07B68032B04D8134A7B6846
:4014400052F8233000E0124B12497A6841F822307B6801337B607B682F2BECD90E4B1B78DAB20E4B1A700E4B0A4A1A60FFF782FE0C4B00221A6000BF0837BD4680BD00BFEE
:401480000CED00E00004FA0514ED00E000000000191300000080FF1FBC760040C480FF1F08ED00E0C080FF1F80B483B000AF0346FB7101BE00BF0C37BD4680BC704700BF5D
:4014C00080B582B000AF786008E00C4B1B68184600F04EFF7B68A3F500437B607B68B3F5004FF2D8064B1B687A6802FB03F3184600F03EFF00BF0837BD4680BDF080FF1F64
:40150000E880FF1F80B582B000AF0346FB80FB88054A127802FB03F3184600F029FF00BF0837BD4680BD00BFEC80FF1F80B584B000AF03463960FB710F4B1B68FB60FB79ED
:401540001F2B02D90020FFF7AFFFFB7903F01F0310339B00FA6813441B68BB60FB7903F01F0310339B00FA6813443A681A60BB6818461037BD4680BD08ED00E080B582B044
:4015800000AF03460A46FB711346BB71BB79072B02D90020FFF788FFFB791F2B02D90020FFF782FFFB7903F01F0303F1604303F56443BA795201D2B21A7000BF0837BD4690
:4015C00080BD00BF80B500AF224A224B1B78DBB203F00103DBB213701F4A1F4B1B78DBB223F00303DBB213701C4A1C4B1B78DBB223F03003DBB21370184A184B1B78DBB2C7
:4016000043F03003DBB21370144A144B1B78DBB223F00F03DBB21370104A104B1B78DBB243F00F03DBB213700D4A0D4B1B78DBB243F00103DBB2137040F6C31000F064F88D
:4016400040F6C31000F072F8082000F041F800BF80BD00BF004F0040024F00400B4F0040014F004080B400AF0D4A0D4B1B78DBB243F00103DBB213700A4A0A4B1B78DBB2EF
:4016800043F00103DBB21370074A074B1B78DBB243F00103DBB2137000BFBD4680BC7047A3430040B3430040004F004080B500AF064B1B78002B04D1FFF784FF034B012287
:4016C0001A70FFF7CFFF00BF80BD00BFA881FF1F80B483B000AF0346FB71044AFB79137000BF0C37BD4680BC704700BF034F004080B400AF034B1B78DBB21846BD4680BC53
:40170000704700BF034F004080B485B000AF0346FB80FB88FB81044AFB89138000BF1437BD4680BC704700BF044F004080B483B000AF0346FB80044AFB88138000BF0C37CF
:40174000BD4680BC704700BF064F004080B582B000AF0F4800F05EF80D4800F075F800F00FFE0346FB710B4A0A4B1B78DBB243F01003DBB21370FB79184600F005FE00F033
:4017800071F8012000F02AF800BF0837BD4680BD3F1901009764004080B400AF054A054B1B78DBB263F07F03DBB2137000BFBD4680BC70477764004080B500AF064B1B789C
:4017C000002B04D1FFF7C2FF034B01221A70FFF7E3FF00BF80BD00BFA981FF1F80B483B000AF0346FB71044AFB79137000BF0C37BD4680BC704700BF8764004080B400AF87
:40180000034B1B78DBB21846BD4680BC704700BF6764004080B582B000AF78607968034800F0B6FD00BF0837BD4680BD2564004080B400AF034B1B6823F07F431846BD466E
:4018400080BC70474564004080B582B000AF78607968034800F09CFD00BF0837BD4680BD0564004080B500AF01E0FFF7E1FFFFF7C5FF034603F00803002BF6D100BF80BD78
:4018800080B582B000AF786000F03CF8786800F009F8072000F018F800F028F800BF0837BD4680BD80B485B000AF7860054B1B68FB60FB6848337A681A6000BF1437BD466B
:4018C00080BC704708ED00E080B483B000AF0346FB71054AFB795B01DBB2137000BF0C37BD4680BC704700BF02E400E080B400AF034B04221A6000BFBD4680BC704700BF64
:4019000000E100E080B400AF034B04221A6000BFBD4680BC704700BF80E100E080B582B000AF0F4800F05EF80D4800F075F800F027FD0346FB710B4A0A4B1B78DBB243F035
:401940001003DBB21370FB79184600F01DFD00F071F8012000F02AF800BF0837BD4680BD3F1901009665004080B400AF054A054B1B78DBB263F07F03DBB2137000BFBD46C1
:4019800080BC70477565004080B500AF064B1B78002B04D1FFF7C2FF034B01221A70FFF7E3FF00BF80BD00BFAA81FF1F80B483B000AF0346FB71044AFB79137000BF0C37B2
:4019C000BD4680BC704700BF8665004080B400AF034B1B78DBB21846BD4680BC704700BF6665004080B582B000AF78607968034800F0CEFC00BF0837BD4680BD24650040BD
:401A000080B400AF034B1B6823F07F431846BD4680BC70474465004080B582B000AF78607968034800F0B4FC00BF0837BD4680BD0465004080B500AF01E0FFF7E1FFFFF7AE
:401A4000C5FF034603F00803002BF6D100BF80BD80B582B000AF786000F03CF8786800F009F8072000F018F800F028F800BF0837BD4680BD80B485B000AF7860054B1B6852
:401A8000FB60FB6844337A681A6000BF1437BD4680BC704708ED00E080B483B000AF0346FB71054AFB795B01DBB2137000BF0C37BD4680BC704700BF01E400E080B400AF67
:401AC000034B02221A6000BFBD4680BC704700BF00E100E080B400AF034B02221A6000BFBD4680BC704700BF80E100E080B582B000AF0F4800F05EF80D4800F075F800F0EC
:401B00003FFC0346FB710B4A0A4B1B78DBB243F01003DBB21370FB79184600F035FC00F071F8012000F02AF800BF0837BD4680BD3F1901009364004080B400AF054A054BC6
:401B40001B78DBB263F07F03DBB2137000BFBD4680BC70477564004080B500AF064B1B78002B04D1FFF7C2FF034B01221A70FFF7E3FF00BF80BD00BFAB81FF1F80B483B0D4
:401B800000AF0346FB71044AFB79137000BF0C37BD4680BC704700BF8364004080B400AF034B1B78DBB21846BD4680BC704700BF6364004080B582B000AF78607968034819
:401BC00000F0E6FB00BF0837BD4680BD2264004080B400AF034B1B6823F07F431846BD4680BC70474264004080B582B000AF78607968034800F0CCFB00BF0837BD4680BD3E
:401C00000264004080B500AF01E0FFF7E1FFFFF7C5FF034603F00803002BF6D100BF80BD80B582B000AF786000F03CF8786800F009F8072000F018F800F028F800BF08375C
:401C4000BD4680BD80B485B000AF7860054B1B68FB60FB684C337A681A6000BF1437BD4680BC704708ED00E080B483B000AF0346FB71054AFB795B01DBB2137000BF0C37F7
:401C8000BD4680BC704700BF03E400E080B400AF034B08221A6000BFBD4680BC704700BF00E100E080B400AF034B08221A6000BFBD4680BC704700BF80E100E080B582B0AD
:401CC00000AF786000F03CF8786800F009F8072000F018F800F028F800BF0837BD4680BD80B485B000AF7860054B1B68FB60FB6884337A681A6000BF1437BD4680BC70475F
:401D000008ED00E080B483B000AF0346FB71054AFB795B01DBB2137000BF0C37BD4680BC704700BF11E400E080B400AF034B4FF400321A6000BFBD4680BC704700E100E0B2
:401D400080B400AF034B4FF400321A6000BFBD4680BC704780E100E080B582B000AF0023FB7106E0FB791846FFF7CAF9FB790133FB71FB79022BF5D9034BFF221A7000BFFC
:401D80000837BD4680BD00BFF480FF1F80B582B000AF0346FB71FFF7DFFFFB791846FFF779F9034AFB79137000BF0837BD4680BDF480FF1F80B500AF064B1B78002B04D19E
:401DC00000F00AF8034B01221A7000F029F800BF80BD00BFAC81FF1F80B500AF102000F051F907210020FFF7C9FB0A490020FFF79DFB094A084B1B78DBB243F00603DBB2FF
:401E000013700C2000F086F8044B00221A8000BF80BD00BF79200000095900404A82FF1F80B582B000AF00F0ABFA0346FB712E4A2D4B1B78DBB243F00203DBB213702B4A6D
:401E40002A4B1B78DBB243F00203DBB21370284A274B1B78DBB243F00103DBB21370254A244B1B78DBB243F00103DBB21370224B1B78BB71BB7943F00203BB71BB7923F0EA
:401E80000103BB711C4ABB7913701C4B04221A701B4A1B4B1B78DBB243F04003DBB21370174A174B1B78DBB223F00303DBB21370144BC8221A70144B02221A70134A134BA6
:401EC0001B78DBB243F00803DBB213700A20FFF719FB0F4B01221A60FB79184600F054FA00BF0837BD4680BDAB430040BB430040A1430040B14300400B5900400E590040EC
:401F00000D59004008590040164600402F5B004080E200E080B584B000AF0346FB71FB790A2B07D00C2B02D0082B06D008E0C423FB730BE08423FB7308E04423FB7305E074
:401F4000C423FB730020FFF7AFFA00BF054AFB7B1370FB79184600F04FF800BF1037BD4680BD00BF0A59004080B400AF054A054B1B78DBB243F00103DBB2137000BFBD46EA
:401F800080BC70470859004080B584B000AF0346FB710C4B1B78DBB203F00103FB73FB7B012B02D0FB79002BF3D0FB7B012B04D10120FFF7A7FA034B1B78FB7B18461037E3
:401FC000BD4680BD0959004080B483B000AF084B1B88FB80074B1B881BB29BB2FA88D31A9BB21BB218460C37BD4680BC704700BFA25B00404882FF1F80B584B000AF034604
:40200000FB71FB790A2B08D00C2B02D0082B08D00BE04FF48053FB600DE04FF48063FB6009E04FF48073FB6005E00023FB600020FFF73AFA00BF0C4B00221A80FB6842F245
:40204000107202FB03F303F6C413084A82FB0312D212DB17D31A064A1360064B00221A8000BF1037BD4680BD4C82FF1FAD8BDB684482FF1F4882FF1F80B400AF00BFBD4686
:4020800080BC704780B483B000AF0346FB710949084B1B78DBB25AB297F9073023F007035BB213435BB2DBB20B7000BF0C37BD4680BC70470241004080B500AF064B1B78F2
:4020C000002B04D100F00AF8034B01221A7000F025F800BF80BD00BFAD81FF1F80B400AF094B72221A70094B20221A70084B06221A70084B47221A70074B00221A7000BF62
:40210000BD4680BC704700BF826400408164004027650040376500408464004080B582B000AF00F02DF90346FB71114A104B1B78DBB243F02003DBB213700E4A0D4B1B786F
:40214000DBB243F01003DBB213700B4A0A4B1B78DBB243F01003DBB2137000F097F8FB79184600F011F900BF0837BD4680BD00BF92640040916400409464004080B483B00A
:4021800000AF044B1B78FB71FB7918460C37BD4680BC70474164004080B483B000AF084B1B78DBB203F02003002B01D0012300E00023FB71FB7918460C37BD4680BC7047F9
:4021C0006164004080B483B000AF0346FB71064B1B78002B02D0054AFB79137000BF0C37BD4680BC704700BFAD81FF1F4064004080B582B000AF786000F03CF8786800F01F
:4022000009F8072000F018F800F028F800BF0837BD4680BD80B485B000AF7860054B1B68FB60FB6850337A681A6000BF1437BD4680BC704708ED00E080B483B000AF034694
:40224000FB71054AFB795B01DBB2137000BF0C37BD4680BC704700BF04E400E080B400AF034B10221A6000BFBD4680BC704700BF00E100E080B400AF034B10221A6000BF96
:40228000BD4680BC704700BF80E100E080B400AF094A094B1B78DBB243F01003DBB21370064A064B1B78DBB243F01003DBB2137000BFBD4680BC7047A2430040B243004002
:4022C00080B485B000AF0346FB710B4B1B78DBB223F00403FB730849FB799B00DBB203F00403DAB2FB7B1343DBB20B7000BF1437BD4680BC704700BF3051004080B485B0E3
:4023000000AF0346FB710A4B1B78DBB223F00103FB730749FB7903F00103DAB2FB7B1343DBB20B7000BF1437BD4680BC704700BF3051004080B485B000AF0346FB710B4B81
:402340001B78DBB223F00203FB730849FB795B00DBB203F00203DAB2FB7B1343DBB20B7000BF1437BD4680BC704700BF305100400230800803D000BF01380046FCD17047E3
:40238000EFF3108072B6704780F31088704700BF80B485B000AF786039607B68FB603B68DAB2FB681A70FB6801333A68120AD2B21A70FB6802333A68120CD2B21A7000BFE0
:4023C0001437BD4680BC704781F0004102E000BF83F0004330B54FEA41044FEA430594EA050F08BF90EA020F1FBF54EA000C55EA020C7FEA645C7FEA655C00F0E2804FEA78
:402400005454D4EB5555B8BF6D420CDD2C4480EA020281EA030382EA000083EA010180EA020281EA0303362D88BF30BD11F0004F4FEA01314FF4801C4CEA113102D0404276
:4024400061EB410113F0004F4FEA03334CEA133302D0524263EB430394EA050F00F0A780A4F10104D5F1200E0DDB02FA0EFC22FA05F2801841F1000103FA0EF2801843FAC2
:4024800005F359410EE0A5F120050EF1200E012A03FA0EFC28BF4CF0020C43FA05F3C01851EBE37101F0004507D54FF0000EDCF1000C7EEB00006EEB0101B1F5801F1BD385
:4024C000B1F5001F0CD349085FEA30004FEA3C0C04F101044FEA445212F5800F80F09A80BCF1004F08BF5FEA500C50F1000041EB045141EA050130BD5FEA4C0C404141EB6E
:40250000010111F4801FA4F10104E9D191F0000F04BF01460020B1FA81F308BF2033A3F10B03B3F120020CDA0C3208DD02F1140CC2F10C0201FA0CF021FA02F10CE002F185
:402540001402D8BFC2F1200C01FA02F120FA0CFCDCBF41EA0C019040E41AA2BF01EB0451294330BD6FEA04041F3C1CDA0C340EDC04F11404C4F1200220FA04F001FA02F365
:4025800040EA030021FA04F345EA030130BDC4F10C04C4F1200220FA02F001FA04F340EA0300294630BD21FA04F0294630BD94F0000F83F4801306BF81F480110134013D53
:4025C0004EE77FEA645C18BF7FEA655C29D094EA050F08BF90EA020F05D054EA000C04BF1946104630BD91EA030F1EBF0021002030BD5FEA545C05D14000494128BF41F0D2
:40260000004130BD14F580043CBF01F5801130BD01F0004545F0FE4141F470014FF0000030BD7FEA645C1ABF194610467FEA655C1CBF0B46024650EA013406BF52EA0335F7
:4026400091EA030F41F4002130BD00BF90F0000F04BF0021704730B54FF4806404F132044FF000054FF0000150E700BF90F0000F04BF0021704730B54FF4806404F132048F
:4026800010F0004548BF40424FF000013EE700BF42004FEAE2014FEA31014FEA02701FBF12F07F4393F07F4F81F06051704792F0000F14BF93F07F4F704730B54FF4607480
:4026C00001F0004521F0004120E700BF50EA010208BF704730B54FF000050AE050EA010208BF704730B511F0004502D5404261EB41014FF4806404F132045FEA915C3FF436
:40270000DCAE4FF003025FEADC0C18BF03325FEADC0C18BF033202EBDC02C2F1200300FA03FC20FA02F001FA03FE40EA0E0021FA02F11444C1E600BF70B54FF0FF0C4CF4FC
:40274000E06C1CEA11541DBF1CEA135594EA0C0F95EA0C0F00F0DEF82C4481EA030621EA4C5123EA4C5350EA013518BF52EA033541F4801143F4801338D0A0FB02CE4FF02A
:402780000005E1FB02E506F00042E0FB03E54FF00006E1FB03569CF0000F18BF4EF0010EA4F1FF04B6F5007F64F5407404D25FEA4E0E6D4146EB060642EAC62141EA555104
:4027C0004FEAC52040EA5E504FEACE2EB4F1FD0C88BFBCF5E06F1ED8BEF1004F08BF5FEA500E50F1000041EB045170BD06F0004646EA010140EA020081EA0301B4EB5C0460
:40280000C2BFD4EB0C0541EA045170BD41F480114FF0000E013C00F3AB8014F1360FDEBF002001F0004170BDC4F10004203C35DA0C341BDC04F11404C4F1200500FA05F392
:4028400020FA04F001FA05F240EA020001F0004221F0004110EBD37021FA04F642EB06015EEA430E08BF20EAD37070BDC4F10C04C4F1200500FA04F320FA05F001FA04F2B6
:4028800040EA020001F0004110EBD37041F100015EEA430E08BF20EAD37070BDC4F1200500FA05F24EEA020E20FA04F301FA05F243EA020321FA04F001F0004121FA04F2D5
:4028C00020EA020000EBD3705EEA430E08BF20EAD37070BD94F0000F0FD101F00046400041EB010111F4801F08BF013CF7D041EA060195F0000F18BF704703F0004652005E
:4029000043EB030313F4801F08BF013DF7D043EA0603704794EA0C0F0CEA135518BF95EA0C0F0CD050EA410618BF52EA4306D1D181EA030101F000414FF0000070BD50EAFA
:40294000410606BF1046194652EA430619D094EA0C0F02D150EA013613D195EA0C0F05D152EA03361CBF104619460AD181EA030101F0004141F0FE4141F470014FF0000021
:4029800070BD41F0FE4141F4780170BD70B54FF0FF0C4CF4E06C1CEA11541DBF1CEA135594EA0C0F95EA0C0F00F0A7F8A4EB050481EA030E52EA03354FEA013100F0888042
:4029C0004FEA03334FF0805545EA131343EA12634FEA022245EA111545EA10654FEA00260EF000419D4208BF964244F1FD0404F5407402D25B084FEA3202B61A65EB03053C
:402A00005B084FEA32024FF480104FF4002CB6EB020E75EB030E22BFB61A754640EA0C005B084FEA3202B6EB020E75EB030E22BFB61A754640EA5C005B084FEA3202B6EB6B
:402A4000020E75EB030E22BFB61A754640EA9C005B084FEA3202B6EB020E75EB030E22BFB61A754640EADC0055EA060E18D04FEA051545EA16754FEA06164FEAC30343EA76
:402A800052734FEAC2025FEA1C1CC0D111F4801F0BD141EA00014FF000004FF0004CB6E711F4801F04BF01430020B4F1FD0C88BFBCF5E06F3FF6AFAEB5EB030C04BFB6EBCA
:402AC000020C5FEA500C50F1000041EB045170BD0EF0004E4EEA113114EB5C04C2BFD4EB0C0541EA045170BD41F480114FF0000E013C90E645EA060E8DE60CEA135594EAB9
:402B00000C0F08BF95EA0C0F3FF43BAF94EA0C0F0AD150EA01347FF434AF95EA0C0F7FF425AF104619462CE795EA0C0F06D152EA03353FF4FDAE1046194622E750EA410618
:402B400018BF52EA43067FF4C5AE50EA41047FF40DAF52EA43057FF4EBAE12E74FF0FF3C06E000BF4FF0010C02E000BF4FF0010C4DF804CD4FEA410C7FEA6C5C4FEA430C2F
:402B800018BF7FEA6C5C1BD001B050EA410C0CBF52EA430C91EA030F02BF90EA020F0020704710F1000F91EA030F58BF994208BF90422CBFD8176FEAE37040F0010070474E
:402BC0004FEA410C7FEA6C5C02D150EA013C07D14FEA430C7FEA6C5CD6D152EA033CD3D05DF8040B704700BF8446104662468C461946634600E000BF01B5FFF7B7FF0028D9
:402C000048BF10F1000F01BD4DF808EDFFF7F4FF0CBF012000205DF808FB00BF4DF808EDFFF7EAFF34BF012000205DF808FB00BF4DF808EDFFF7E0FF94BF012000205DF81D
:402C400008FB00BF4DF808EDFFF7CEFF94BF012000205DF808FB00BF4DF808EDFFF7C4FF34BF012000205DF808FB00BF4A0011D212F5001211D20DD56FF47873B3EB625201
:402C80000ED44FEAC12343F0004343EA505323FA02F070474FF00000704750EA013002D14FF0FF3070474FF000007047014B1868704700BF5881FF1F0E4B70B51E460E4C45
:402CC0000025E41AA410A54204D056F8253098470135F8E700F026F9084B094C1E46E41AA4100025A54204D056F8253098470135F8E770BD302F0000302F0000302F00001D
:402D0000382F0000024B0146186800F06BB800BF5881FF1F024B0146186800F017B800BF5881FF1F10B5431E0A44914204D011F8014B03F8014FF8E710BD034602449342FB
:402D400002D003F8011BFAE77047000038B50546002944D051F8043C0C1F002BB8BFE41800F0AEF81E4A1368114613B96360146030E0A3420DD92268A018834201BF186816
:402D80005B681218226063600C6023E0A24203D813465A68002AF9D118681918A1420BD12168014458188242196013D110685268014419605A600DE002D90C232B6009E0C0
:402DC00021686018824201BF106852680918216062605C602846BDE8384000F072B838BDB481FF1F70B5CD1C25F0030508350C2D38BF0C25002D064601DBA94202D90C23FC
:402E0000336046E000F05CF8234B1C681A462146A1B10B685B1B0ED40B2B03D90B60CC18CD501EE08C420BBF63684B681360636018BF0C4615E00C464968E9E7174C236818
:402E40001BB9304600F02CF820602946304600F027F8431C18D0C41C24F00304A0420DD12560304600F02DF804F10B00231D20F00700C31A0ED05A42E25070BD211A3046B0
:402E800000F00EF80130EBD10C233360304600F018F8002070BD00BFB481FF1FB081FF1F38B5064C0023054608462360FEF73EFA431C02D1236803B12B6038BD5082FF1FBD
:402EC00070477047000000002D510040005B00402D510040244300402D510040285B00400102020004040000004F00400C00405100403000F051004010000000014000109A
:402F000000140140000800400140000A004C01400002005001402000605200404C06004806004300F8B500BFF8BC08BC9E4670474D00000019140000F8B500BFF8BC08BCB7
:402F40009E46704729000000582F0000C880FF1F98000000F8000000000000004600000060090000900B0000900B0000030000005882FF1F00366E01C05D00001800000056
:402F80000000E02EFF0000000000000000000000000000000000000000000000000000000000000000000000222F00000000000000000000000000000000000000000000B3
:402FC00000000000000000000000000000000000000000000000000000000000000000000000000000000000F880FF1F00000000000000000000000000000000000000003B
:403000000000000000000000000000000000000000000000000000000000000000000000000000000000000000000000000000000000000000000000000000000000000090
:403040000000000000000000000000000000000000000000000000000000000000000000000000000000000000000000000000000000000000000000000000000000000050
:403080000000000000000000000000000000000000000000000000000000000000000000000000000000000000000000000000000000000000000000000000000000000010
:4030C00000000000000000000000000000000000000000000000000000000000000000000000000000000000000000000000000000000000000000000000000000000000D0
:020000040003F7
:0200000480007A
:40000000014F004005640040016500404E00014029010140570201403A030140620401403D0501404A06014031070140281401400C15014038160140221701400418014056
:4000400002190140011B014009400140054101400A420140044301400748014002490140024C0140014D014005500140025101400A3681388272830D840F870D860D406363
:40008000410245E0460B470C481649FF4AFF4BFF4EF04F44500C5A045D045F0166C06A406B028306840185068B068E018F01930195049601971099069A029B089E02A1029D
:4000C000A310A506A801AF06B118B202B301B601B706B880BA20BE04BF05C024C103C205C401C50EC60CC805C9FFCAFFCBFFCC62CDA0CEF0CF41D00CD418D604D804D90442
:40010000DA04DB04DC44DD44DF01E640E702E910EA30EB10ED10EE10EF12040405800E110F0816081C041E051F0427622D802E082F8036163D0A3E143F80411043084527BA
:400140004608474048844E024F085004524057405F02668067488740C0A0C2E0C440CAD0CCE0CEF0D0F6D214D680D8B0000C0213040F057F0610081F095C0B210D101213A1
:40018000130414031508180219181C131D7C1E0C1F0220082104240425672718280C2C012F233138321C340F3540371F3A283B803F10405349FF4AFF4BFF4F0150185602F4
:4001C0005712580459045A045B045C445D415F016040624064406540668068806A806C806E808601AE01B001BE01C053C9FFCAFFCBFFCD83CE03CF01D018D401D604D804ED
:40020000DA04DB04DD11DF01E040E240E440E540E680E880EA80EC80EE800210062807400D020E280F0210021602171A1A801D201E101F20240426822FA13580368137587F
:400240003C803E3C40204420461048024C0259065A805C0460806D547440771A90089204952096109A409C809D80A080A404A522A616A788AA80AB20AC80C074C2F0C4F145
:40028000CAD0CCF0CE70D042D218D64BD801050306030714084009130B040C1C0D0A0E220F14100912101410183019131A0C1B0C1D202014242C26112B152F083060332011
:4002C000341F350F371038023B203F44405245EC4620480B49FF4AFF4BFF4D834E034F0150185401580459045A045B045C445D415F016040624064406540668068806A802C
:400300006C806E8085018C128E299401960698249A11A477A877AC40B040B101B207B430B608BF01C042C9FFCAFFCBFFCF01D018D280D804D904DA04DB04DC04DD12DF0101
:40034000E040E240E440E540E680E880EA80EC80EE800044030804080602072009280A400C800E291260155418041A401B021D021E2A1F01200821202244230427402B0A91
:4003800030803120384839203C044320468448024906521053205A895B2074028340874090089154952097029A409D069E12A080A406A502A615A788AF21C087C26EC4ECE0
:4003C000CA0CCC0CCE4ED0A4D208D60F404249FF4AFF4BFF4D834E034F0150185A045D025F016040624064406540668068806A806C806E8084018606870A8A038B068C0C38
:400400008D0C8E038F02920C96089704A301A401A60EA701AB02AF0CB00FB101B50EBA02BB20BF01C043C5ECC702C813C9FFCAFFCBFFCD83CE03CF01D018D280D401D60405
:40044000D804D904DA04DB04DC44DD22DF01E040E240E440E540E680E880EA80EC80EE8000480308080109080A401220184021102220238028412A042B083108384039203F
:400480003B04410442804440468449055104520459055B8063407280924093049440952097409E84A004A508A620A708AA02AB80C007C20CC404CA0FCC02CE0ED0A3D60B25
:4004C000D801405449FF4AFF4BFF4F0150185A045D035F016040624064406540668068806A806C806E80C051C9FFCAFFCBFFCD83CE03CF01D018D280DA04DB04DD33DF017D
:40050000E040E240E440E540E680E880EA80EC80EE804302460148024C02740277409A019F40A302D011D218EE0812012E0130013E01401445EC4720482349FF4AFF4BFF09
:400540004D834E034F0150185401560458045A045B045D335F016040624064406540668068806A806C806E8084038A018C02A403B603B880BE40C001C704C9FFCA07CBFFA8
:40058000CC40CD20CEF0CF05D008D804DA04DD04DF01E040E1A8E240E320006803080D021220174018011E8040014502474048104D044F0151085502560157025D045E8026
:4005C0005F01650181019040A004A220A508A708C007C210C484D098D6D0D880E20839203F1059045F0127088708EE0830023320340236403B208710CCF0CE10E640A4024E
:40060000A640A720AC02EE400502571083108640A402A640A720C020D440E6C0A402A720A902EC20678080028740A402A720D880E230AF20EE101F80C601AF8000160812C0
:400640000A1610181A1800FF0103000004040000080000000000000000000400040008040400040000000000000B0B000000000000000000000007000007070000000000A6
:400680000C00180100000000000000000000000000000000000000000000000000000000000000000000000000000000000000000000000000000000000000000000000015
:4006C00000000000000000000000000000000000000000000000000000000000000000000000000000000000000000000000000000000000000000000000000000000000FA
:4007000000000000000000000000000000000000000000000000000000000000000000000000000000000000000000000000000000000000000000000000000000000000B9
:400740000000000000000000000000000000000000000000000000000000000000000000000000000000000000000000000000000000000000000000000000000000000079
:400780000000000000000000000000000000000000000000000000000000000000000000000000000000000000000000000000000000000000000000000000000000000039
:0200000490006A
:0400000000004005B7
:0200000490105A
:04000000BC90ACAF55
:0200000490303A
:020000003A7C48
:0200000490402A
:4000000000000000000000000000000000000000000000000000000000000000000000000000000000000000000000000000000000000000000000000000000000000000C0
:400040000000000000000000000000000000000000000000000000000000000000000000000000000000000000000000000000000000000000000000000000000000000080
:400080000000000000000000000000000000000000000000000000000000000000000000000000000000000000000000000000000000000000000000000000000000000040
:4000C0000000000000000000000000000000000000000000000000000000000000000000000000000000000000000000000000000000000000000000000000000000000000
:0200000490501A
:0C00000000012E16106900012E2B4AE5AD
:00000001FF